{
  "_format": "hh-sol-artifact-1",
  "contractName": "SommiaNFTFactory",
  "sourceName": "contracts/SommiaNFTFactory.sol",
  "abi": [
    {
      "inputs": [],
      "stateMutability": "nonpayable",
      "type": "constructor"
    },
    {
      "inputs": [
        {
          "internalType": "address",
          "name": "owner",
          "type": "address"
        }
      ],
      "name": "OwnableInvalidOwner",
      "type": "error"
    },
    {
      "inputs": [
        {
          "internalType": "address",
          "name": "account",
          "type": "address"
        }
      ],
      "name": "OwnableUnauthorizedAccount",
      "type": "error"
    },
    {
      "anonymous": false,
      "inputs": [
        {
          "indexed": true,
          "internalType": "address",
          "name": "collection",
          "type": "address"
        },
        {
          "indexed": true,
          "internalType": "address",
          "name": "creator",
          "type": "address"
        },
        {
          "indexed": false,
          "internalType": "string",
          "name": "name",
          "type": "string"
        },
        {
          "indexed": false,
          "internalType": "string",
          "name": "symbol",
          "type": "string"
        },
        {
          "indexed": false,
          "internalType": "uint256",
          "name": "maxSupply",
          "type": "uint256"
        },
        {
          "indexed": false,
          "internalType": "uint256",
          "name": "mintPrice",
          "type": "uint256"
        }
      ],
      "name": "CollectionDeployed",
      "type": "event"
    },
    {
      "anonymous": false,
      "inputs": [
        {
          "indexed": true,
          "internalType": "address",
          "name": "previousOwner",
          "type": "address"
        },
        {
          "indexed": true,
          "internalType": "address",
          "name": "newOwner",
          "type": "address"
        }
      ],
      "name": "OwnershipTransferred",
      "type": "event"
    },
    {
      "inputs": [
        {
          "internalType": "address",
          "name": "",
          "type": "address"
        }
      ],
      "name": "collectionInfo",
      "outputs": [
        {
          "internalType": "string",
          "name": "name",
          "type": "string"
        },
        {
          "internalType": "string",
          "name": "symbol",
          "type": "string"
        },
        {
          "internalType": "address",
          "name": "creator",
          "type": "address"
        },
        {
          "internalType": "uint256",
          "name": "maxSupply",
          "type": "uint256"
        },
        {
          "internalType": "uint256",
          "name": "mintPrice",
          "type": "uint256"
        },
        {
          "internalType": "uint256",
          "name": "createdAt",
          "type": "uint256"
        }
      ],
      "stateMutability": "view",
      "type": "function"
    },
    {
      "inputs": [
        {
          "internalType": "uint256",
          "name": "",
          "type": "uint256"
        }
      ],
      "name": "collections",
      "outputs": [
        {
          "internalType": "address",
          "name": "",
          "type": "address"
        }
      ],
      "stateMutability": "view",
      "type": "function"
    },
    {
      "inputs": [
        {
          "internalType": "address",
          "name": "",
          "type": "address"
        },
        {
          "internalType": "uint256",
          "name": "",
          "type": "uint256"
        }
      ],
      "name": "creatorCollections",
      "outputs": [
        {
          "internalType": "address",
          "name": "",
          "type": "address"
        }
      ],
      "stateMutability": "view",
      "type": "function"
    },
    {
      "inputs": [
        {
          "internalType": "string",
          "name": "_name",
          "type": "string"
        },
        {
          "internalType": "string",
          "name": "_symbol",
          "type": "string"
        },
        {
          "internalType": "string",
          "name": "_collectionCID",
          "type": "string"
        },
        {
          "internalType": "uint256",
          "name": "_maxSupply",
          "type": "uint256"
        },
        {
          "internalType": "uint256",
          "name": "_mintPrice",
          "type": "uint256"
        }
      ],
      "name": "deployCollection",
      "outputs": [
        {
          "internalType": "address",
          "name": "",
          "type": "address"
        }
      ],
      "stateMutability": "payable",
      "type": "function"
    },
    {
      "inputs": [],
      "name": "deploymentFee",
      "outputs": [
        {
          "internalType": "uint256",
          "name": "",
          "type": "uint256"
        }
      ],
      "stateMutability": "view",
      "type": "function"
    },
    {
      "inputs": [],
      "name": "getAllCollections",
      "outputs": [
        {
          "internalType": "address[]",
          "name": "",
          "type": "address[]"
        }
      ],
      "stateMutability": "view",
      "type": "function"
    },
    {
      "inputs": [
        {
          "internalType": "uint256",
          "name": "offset",
          "type": "uint256"
        },
        {
          "internalType": "uint256",
          "name": "limit",
          "type": "uint256"
        }
      ],
      "name": "getCollectionsPaginated",
      "outputs": [
        {
          "internalType": "address[]",
          "name": "collectionAddresses",
          "type": "address[]"
        },
        {
          "components": [
            {
              "internalType": "string",
              "name": "name",
              "type": "string"
            },
            {
              "internalType": "string",
              "name": "symbol",
              "type": "string"
            },
            {
              "internalType": "address",
              "name": "creator",
              "type": "address"
            },
            {
              "internalType": "uint256",
              "name": "maxSupply",
              "type": "uint256"
            },
            {
              "internalType": "uint256",
              "name": "mintPrice",
              "type": "uint256"
            },
            {
              "internalType": "uint256",
              "name": "createdAt",
              "type": "uint256"
            }
          ],
          "internalType": "struct SommiaNFTFactory.CollectionInfo[]",
          "name": "infos",
          "type": "tuple[]"
        },
        {
          "internalType": "bool",
          "name": "hasMore",
          "type": "bool"
        }
      ],
      "stateMutability": "view",
      "type": "function"
    },
    {
      "inputs": [
        {
          "internalType": "address",
          "name": "creator",
          "type": "address"
        }
      ],
      "name": "getCreatorCollections",
      "outputs": [
        {
          "internalType": "address[]",
          "name": "",
          "type": "address[]"
        }
      ],
      "stateMutability": "view",
      "type": "function"
    },
    {
      "inputs": [],
      "name": "getTotalCollections",
      "outputs": [
        {
          "internalType": "uint256",
          "name": "",
          "type": "uint256"
        }
      ],
      "stateMutability": "view",
      "type": "function"
    },
    {
      "inputs": [
        {
          "internalType": "address",
          "name": "",
          "type": "address"
        }
      ],
      "name": "isCollection",
      "outputs": [
        {
          "internalType": "bool",
          "name": "",
          "type": "bool"
        }
      ],
      "stateMutability": "view",
      "type": "function"
    },
    {
      "inputs": [],
      "name": "owner",
      "outputs": [
        {
          "internalType": "address",
          "name": "",
          "type": "address"
        }
      ],
      "stateMutability": "view",
      "type": "function"
    },
    {
      "inputs": [],
      "name": "renounceOwnership",
      "outputs": [],
      "stateMutability": "nonpayable",
      "type": "function"
    },
    {
      "inputs": [
        {
          "internalType": "uint256",
          "name": "_fee",
          "type": "uint256"
        }
      ],
      "name": "setDeploymentFee",
      "outputs": [],
      "stateMutability": "nonpayable",
      "type": "function"
    },
    {
      "inputs": [
        {
          "internalType": "address",
          "name": "newOwner",
          "type": "address"
        }
      ],
      "name": "transferOwnership",
      "outputs": [],
      "stateMutability": "nonpayable",
      "type": "function"
    },
    {
      "inputs": [
        {
          "internalType": "address",
          "name": "_collection",
          "type": "address"
        }
      ],
      "name": "verifyCollection",
      "outputs": [
        {
          "internalType": "bool",
          "name": "",
          "type": "bool"
        }
      ],
      "stateMutability": "view",
      "type": "function"
    },
    {
      "inputs": [],
      "name": "withdraw",
      "outputs": [],
      "stateMutability": "nonpayable",
      "type": "function"
    }
  ],
  "bytecode": "0x6080604052600060055534801561001557600080fd5b50338061003c57604051631e4fbdf760e01b81526000600482015260240160405180910390fd5b6100458161004b565b5061009b565b600080546001600160a01b038381166001600160a01b0319831681178455604051919092169283917f8be0079c531659141344cd1fd0a4f28419497f9722a3daafe3b4186f6b6457e09190a35050565b61378c806100aa6000396000f3fe608060405260043610620001075760003560e01c8063715018a61162000095578063d002462b1162000060578063d002462b146200031a578063f2cff57f146200033f578063f2fde38b1462000357578063fdbda0ec146200037c57600080fd5b8063715018a6146200029c57806374311e1214620002b45780638da5cb5b14620002d9578063939bf6dd14620002f957600080fd5b80635df44c9211620000d65780635df44c9214620001f45780635fa15ebb146200022a57806360529b0e146200025e5780636804a958146200027557600080fd5b80631f0c602d146200010c5780633908cc93146200014e5780633ccfd60b146200019c5780635cf7987c14620001b6575b600080fd5b3480156200011957600080fd5b50620001316200012b36600462000f6e565b620003a1565b604051620001459695949392919062000fdb565b60405180910390f35b3480156200015b57600080fd5b506200018b6200016d36600462000f6e565b6001600160a01b031660009081526003602052604090205460ff1690565b604051901515815260200162000145565b348015620001a957600080fd5b50620001b462000500565b005b348015620001c357600080fd5b50620001db620001d536600462001033565b62000595565b6040516001600160a01b03909116815260200162000145565b3480156200020157600080fd5b50620002196200021336600462001060565b620005ce565b6040516200014593929190620010c9565b3480156200023757600080fd5b506200018b6200024936600462000f6e565b60036020526000908152604090205460ff1681565b620001db6200026f36600462001254565b62000960565b3480156200028257600080fd5b506200028d62000d13565b604051620001459190620012f8565b348015620002a957600080fd5b50620001b462000d77565b348015620002c157600080fd5b506200028d620002d336600462000f6e565b62000d8f565b348015620002e657600080fd5b506000546001600160a01b0316620001db565b3480156200030657600080fd5b506001545b60405190815260200162000145565b3480156200032757600080fd5b50620001b4620003393660046200130d565b62000e07565b3480156200034c57600080fd5b506200030b60055481565b3480156200036457600080fd5b50620001b46200037636600462000f6e565b62000e16565b3480156200038957600080fd5b50620001db6200039b3660046200130d565b62000e5a565b600460205260009081526040902080548190620003be9062001327565b80601f0160208091040260200160405190810160405280929190818152602001828054620003ec9062001327565b80156200043d5780601f1062000411576101008083540402835291602001916200043d565b820191906000526020600020905b8154815290600101906020018083116200041f57829003601f168201915b505050505090806001018054620004549062001327565b80601f0160208091040260200160405190810160405280929190818152602001828054620004829062001327565b8015620004d35780601f10620004a757610100808354040283529160200191620004d3565b820191906000526020600020905b815481529060010190602001808311620004b557829003601f168201915b5050505060028301546003840154600485015460059095015493946001600160a01b039092169390925086565b6200050a62000e85565b4780620005575760405162461bcd60e51b81526020600482015260166024820152754e6f2062616c616e636520746f20776974686472617760501b60448201526064015b60405180910390fd5b600080546040516001600160a01b039091169183156108fc02918491818181858888f1935050505015801562000591573d6000803e3d6000fd5b5050565b60026020528160005260406000208181548110620005b257600080fd5b6000918252602090912001546001600160a01b03169150829050565b60015460609081906000908086106200062e57604080516000808252602082018181528284019093529091906200061e565b6200060a62000f04565b815260200190600190039081620006005790505b5060009350935093505062000959565b60006200063c868862001379565b9050818111156200064a5750805b600062000658888362001395565b90508067ffffffffffffffff811115620006765762000676620011a9565b604051908082528060200260200182016040528015620006a0578160200160208202803683370190505b5095508067ffffffffffffffff811115620006bf57620006bf620011a9565b604051908082528060200260200182016040528015620006fc57816020015b620006e862000f04565b815260200190600190039081620006de5790505b50945060005b818110156200095357600060016200071b838c62001379565b815481106200072e576200072e620013ab565b9060005260206000200160009054906101000a90046001600160a01b0316905080888381518110620007645762000764620013ab565b60200260200101906001600160a01b031690816001600160a01b03168152505060046000826001600160a01b03166001600160a01b031681526020019081526020016000206040518060c0016040529081600082018054620007c69062001327565b80601f0160208091040260200160405190810160405280929190818152602001828054620007f49062001327565b8015620008455780601f10620008195761010080835404028352916020019162000845565b820191906000526020600020905b8154815290600101906020018083116200082757829003601f168201915b50505050508152602001600182018054620008609062001327565b80601f01602080910402602001604051908101604052809291908181526020018280546200088e9062001327565b8015620008df5780601f10620008b357610100808354040283529160200191620008df565b820191906000526020600020905b815481529060010190602001808311620008c157829003601f168201915b505050918352505060028201546001600160a01b0316602082015260038201546040820152600482015460608201526005909101546080909101528751889084908110620009315762000931620013ab565b60200260200101819052505080806200094a90620013c1565b91505062000702565b50501090505b9250925092565b6000600554341015620009b65760405162461bcd60e51b815260206004820152601b60248201527f496e73756666696369656e74206465706c6f796d656e7420666565000000000060448201526064016200054e565b6000865111620009f95760405162461bcd60e51b815260206004820152600d60248201526c13985b59481c995c5d5a5c9959609a1b60448201526064016200054e565b600085511162000a3e5760405162461bcd60e51b815260206004820152600f60248201526e14de5b589bdb081c995c5d5a5c9959608a1b60448201526064016200054e565b6000831162000a9a5760405162461bcd60e51b815260206004820152602160248201527f4d617820737570706c79206d7573742062652067726561746572207468616e206044820152600360fc1b60648201526084016200054e565b6000868686868660405162000aaf9062000f43565b62000abf959493929190620013dd565b604051809103906000f08015801562000adc573d6000803e3d6000fd5b5060405163f2fde38b60e01b81523360048201529091506001600160a01b0382169063f2fde38b90602401600060405180830381600087803b15801562000b2257600080fd5b505af115801562000b37573d6000803e3d6000fd5b50506001805480820182557fb10e2d527612073b26eecdfd717e6a320cf44b4afac2b0732d9fcbe2b7fa0cf60180546001600160a01b0386166001600160a01b0319918216811790925533600081815260026020908152604080832080548089018255908452828420018054909516861790945584825260038152838220805460ff1916909617909555825160c0810184528e81528086018e905280840192909252606082018b9052608082018a90524260a083015292835260049093529020815185945091925090819062000c0e908262001484565b506020820151600182019062000c25908262001484565b5060408201516002820180546001600160a01b0319166001600160a01b03909216919091179055606082015160038201556080820151600482015560a0909101516005918201555434111562000cb55760055433906108fc9062000c8a903462001395565b6040518115909202916000818181858888f1935050505015801562000cb3573d6000803e3d6000fd5b505b336001600160a01b0316816001600160a01b03167f0a69c5c1ded03e2baab30ea9a0f368721403c9de7a2bfac68fafd306c5bf971c8a8a898960405162000d00949392919062001551565b60405180910390a3979650505050505050565b6060600180548060200260200160405190810160405280929190818152602001828054801562000d6d57602002820191906000526020600020905b81546001600160a01b0316815260019091019060200180831162000d4e575b5050505050905090565b62000d8162000e85565b62000d8d600062000eb4565b565b6001600160a01b03811660009081526002602090815260409182902080548351818402810184019094528084526060939283018282801562000dfb57602002820191906000526020600020905b81546001600160a01b0316815260019091019060200180831162000ddc575b50505050509050919050565b62000e1162000e85565b600555565b62000e2062000e85565b6001600160a01b03811662000e4c57604051631e4fbdf760e01b8152600060048201526024016200054e565b62000e578162000eb4565b50565b6001818154811062000e6b57600080fd5b6000918252602090912001546001600160a01b0316905081565b6000546001600160a01b0316331462000d8d5760405163118cdaa760e01b81523360048201526024016200054e565b600080546001600160a01b038381166001600160a01b0319831681178455604051919092169283917f8be0079c531659141344cd1fd0a4f28419497f9722a3daafe3b4186f6b6457e09190a35050565b6040518060c00160405280606081526020016060815260200160006001600160a01b031681526020016000815260200160008152602001600081525090565b6121c8806200158f83390190565b80356001600160a01b038116811462000f6957600080fd5b919050565b60006020828403121562000f8157600080fd5b62000f8c8262000f51565b9392505050565b6000815180845260005b8181101562000fbb5760208185018101518683018201520162000f9d565b506000602082860101526020601f19601f83011685010191505092915050565b60c08152600062000ff060c083018962000f93565b828103602084015262001004818962000f93565b6001600160a01b0397909716604084015250506060810193909352608083019190915260a09091015292915050565b600080604083850312156200104757600080fd5b620010528362000f51565b946020939093013593505050565b600080604083850312156200107457600080fd5b50508035926020909101359150565b600081518084526020808501945080840160005b83811015620010be5781516001600160a01b03168752958201959082019060010162001097565b509495945050505050565b60006060808352620010de8184018762001083565b6020848203818601528187518084528284019150828160051b850101838a0160005b838110156200118957601f19878403018552815160c08151818652620011298287018262000f93565b915050878201518582038987015262001143828262000f93565b6040848101516001600160a01b0316908801528b8401518c8801526080808501519088015260a09384015193909601929092525050938501939085019060010162001100565b505088151560408901529550620011a1945050505050565b949350505050565b634e487b7160e01b600052604160045260246000fd5b600082601f830112620011d157600080fd5b813567ffffffffffffffff80821115620011ef57620011ef620011a9565b604051601f8301601f19908116603f011681019082821181831017156200121a576200121a620011a9565b816040528381528660208588010111156200123457600080fd5b836020870160208301376000602085830101528094505050505092915050565b600080600080600060a086880312156200126d57600080fd5b853567ffffffffffffffff808211156200128657600080fd5b6200129489838a01620011bf565b96506020880135915080821115620012ab57600080fd5b620012b989838a01620011bf565b95506040880135915080821115620012d057600080fd5b50620012df88828901620011bf565b9598949750949560608101359550608001359392505050565b60208152600062000f8c602083018462001083565b6000602082840312156200132057600080fd5b5035919050565b600181811c908216806200133c57607f821691505b6020821081036200135d57634e487b7160e01b600052602260045260246000fd5b50919050565b634e487b7160e01b600052601160045260246000fd5b808201808211156200138f576200138f62001363565b92915050565b818103818111156200138f576200138f62001363565b634e487b7160e01b600052603260045260246000fd5b600060018201620013d657620013d662001363565b5060010190565b60a081526000620013f260a083018862000f93565b828103602084015262001406818862000f93565b905082810360408401526200141c818762000f93565b60608401959095525050608001529392505050565b601f8211156200147f57600081815260208120601f850160051c810160208610156200145a5750805b601f850160051c820191505b818110156200147b5782815560010162001466565b5050505b505050565b815167ffffffffffffffff811115620014a157620014a1620011a9565b620014b981620014b2845462001327565b8462001431565b602080601f831160018114620014f15760008415620014d85750858301515b600019600386901b1c1916600185901b1785556200147b565b600085815260208120601f198616915b82811015620015225788860151825594840194600190910190840162001501565b5085821015620015415787850151600019600388901b60f8161c191681555b5050505050600190811b01905550565b60808152600062001566608083018762000f93565b82810360208401526200157a818762000f93565b60408401959095525050606001529291505056fe60806040523480156200001157600080fd5b50604051620021c8380380620021c88339810160408190526200003491620001cf565b338585600062000045838262000302565b50600162000054828262000302565b5050506001600160a01b0381166200008657604051631e4fbdf760e01b81526000600482015260240160405180910390fd5b6200009181620000b8565b506009620000a0848262000302565b50600a91909155600b555050600160085550620003ce565b600780546001600160a01b038381166001600160a01b0319831681179093556040519116919082907f8be0079c531659141344cd1fd0a4f28419497f9722a3daafe3b4186f6b6457e090600090a35050565b634e487b7160e01b600052604160045260246000fd5b600082601f8301126200013257600080fd5b81516001600160401b03808211156200014f576200014f6200010a565b604051601f8301601f19908116603f011681019082821181831017156200017a576200017a6200010a565b816040528381526020925086838588010111156200019757600080fd5b600091505b83821015620001bb57858201830151818301840152908201906200019c565b600093810190920192909252949350505050565b600080600080600060a08688031215620001e857600080fd5b85516001600160401b03808211156200020057600080fd5b6200020e89838a0162000120565b965060208801519150808211156200022557600080fd5b6200023389838a0162000120565b955060408801519150808211156200024a57600080fd5b50620002598882890162000120565b606088015160809098015196999598509695949350505050565b600181811c908216806200028857607f821691505b602082108103620002a957634e487b7160e01b600052602260045260246000fd5b50919050565b601f821115620002fd57600081815260208120601f850160051c81016020861015620002d85750805b601f850160051c820191505b81811015620002f957828155600101620002e4565b5050505b505050565b81516001600160401b038111156200031e576200031e6200010a565b62000336816200032f845462000273565b84620002af565b602080601f8311600181146200036e5760008415620003555750858301515b600019600386901b1c1916600185901b178555620002f9565b600085815260208120601f198616915b828110156200039f578886015182559484019460019091019084016200037e565b5085821015620003be5787850151600019600388901b60f8161c191681555b5050505050600190811b01905550565b611dea80620003de6000396000f3fe6080604052600436106101b65760003560e01c806370a08231116100ec578063c87b56dd1161008a578063d63d4af011610064578063d63d4af0146104a0578063e985e9c5146104cd578063f2f18baa146104ed578063f2fde38b1461050057600080fd5b8063c87b56dd14610457578063d0def52114610477578063d5abeb011461048a57600080fd5b806395d89b41116100c657806395d89b41146103e2578063a22cb465146103f7578063b458f92714610417578063b88d4fde1461043757600080fd5b806370a082311461038f578063715018a6146103af5780638da5cb5b146103c457600080fd5b806323b872dd1161015957806342842e0e1161013357806342842e0e146103195780634afa460a146103395780636352211e146103595780636817c76c1461037957600080fd5b806323b872dd146102c457806328b60031146102e45780633ccfd60b1461030457600080fd5b8063081812fc11610195578063081812fc14610234578063095ea7b31461026c57806318160ddd1461028c5780631c095e5a146102af57600080fd5b8062728e46146101bb57806301ffc9a7146101dd57806306fdde0314610212575b600080fd5b3480156101c757600080fd5b506101db6101d63660046116e9565b610520565b005b3480156101e957600080fd5b506101fd6101f8366004611718565b61052d565b60405190151581526020015b60405180910390f35b34801561021e57600080fd5b5061022761053e565b6040516102099190611785565b34801561024057600080fd5b5061025461024f3660046116e9565b6105d0565b6040516001600160a01b039091168152602001610209565b34801561027857600080fd5b506101db6102873660046117b4565b6105f9565b34801561029857600080fd5b506102a1610608565b604051908152602001610209565b3480156102bb57600080fd5b5061022761061e565b3480156102d057600080fd5b506101db6102df3660046117de565b6106ac565b3480156102f057600080fd5b506102a16102ff3660046117b4565b61073c565b34801561031057600080fd5b506101db61076d565b34801561032557600080fd5b506101db6103343660046117de565b6107f6565b34801561034557600080fd5b506101db6103543660046118d9565b610816565b34801561036557600080fd5b506102546103743660046116e9565b610865565b34801561038557600080fd5b506102a1600b5481565b34801561039b57600080fd5b506102a16103aa36600461190e565b610870565b3480156103bb57600080fd5b506101db6108b8565b3480156103d057600080fd5b506007546001600160a01b0316610254565b3480156103ee57600080fd5b506102276108cc565b34801561040357600080fd5b506101db610412366004611929565b6108db565b34801561042357600080fd5b506102276104323660046116e9565b6108e6565b34801561044357600080fd5b506101db610452366004611965565b610949565b34801561046357600080fd5b506102276104723660046116e9565b610961565b6102a16104853660046119e1565b61096c565b34801561049657600080fd5b506102a1600a5481565b3480156104ac57600080fd5b506104c06104bb36600461190e565b610b26565b6040516102099190611a2f565b3480156104d957600080fd5b506101fd6104e8366004611a73565b610b92565b6104c06104fb366004611aa6565b610bc0565b34801561050c57600080fd5b506101db61051b36600461190e565b610d09565b610528610d47565b600b55565b600061053882610d74565b92915050565b60606000805461054d90611b7c565b80601f016020809104026020016040519081016040528092919081815260200182805461057990611b7c565b80156105c65780601f1061059b576101008083540402835291602001916105c6565b820191906000526020600020905b8154815290600101906020018083116105a957829003601f168201915b5050505050905090565b60006105db82610d99565b506000828152600460205260409020546001600160a01b0316610538565b610604828233610dd2565b5050565b600060016008546106199190611bcc565b905090565b6009805461062b90611b7c565b80601f016020809104026020016040519081016040528092919081815260200182805461065790611b7c565b80156106a45780601f10610679576101008083540402835291602001916106a4565b820191906000526020600020905b81548152906001019060200180831161068757829003601f168201915b505050505081565b6001600160a01b0382166106db57604051633250574960e11b8152600060048201526024015b60405180910390fd5b60006106e8838333610ddf565b9050836001600160a01b0316816001600160a01b031614610736576040516364283d7b60e01b81526001600160a01b03808616600483015260248201849052821660448201526064016106d2565b50505050565b600c602052816000526040600020818154811061075857600080fd5b90600052602060002001600091509150505481565b610775610d47565b47806107bc5760405162461bcd60e51b81526020600482015260166024820152754e6f2062616c616e636520746f20776974686472617760501b60448201526064016106d2565b6007546040516001600160a01b039091169082156108fc029083906000818181858888f19350505050158015610604573d6000803e3d6000fd5b61081183838360405180602001604052806000815250610949565b505050565b61081e610d47565b600961082a8282611c25565b507f8bcf44b34a741fd281b9771b79f40f6562db6b2f6f5049ec110a6e76e86e57e38160405161085a9190611785565b60405180910390a150565b600061053882610d99565b60006001600160a01b03821661089c576040516322718ad960e21b8152600060048201526024016106d2565b506001600160a01b031660009081526003602052604090205490565b6108c0610d47565b6108ca6000610ed8565b565b60606001805461054d90611b7c565b610604338383610f2a565b606060006108f383610865565b6001600160a01b0316036109405760405162461bcd60e51b8152602060048201526014602482015273151bdad95b88191bd95cc81b9bdd08195e1a5cdd60621b60448201526064016106d2565b61053882610961565b6109548484846106ac565b6107363385858585610fc9565b6060610538826110f4565b6000600a5460085411156109b75760405162461bcd60e51b815260206004820152601260248201527113585e081cdd5c1c1b1e481c995858da195960721b60448201526064016106d2565b600b54341015610a005760405162461bcd60e51b8152602060048201526014602482015273125b9cdd59999a58da595b9d081c185e5b595b9d60621b60448201526064016106d2565b6000825111610a405760405162461bcd60e51b815260206004820152600c60248201526b10d251081c995c5d5a5c995960a21b60448201526064016106d2565b600880549081906000610a5283611ce5565b9190505550610a618482611205565b610a6b818461121f565b6001600160a01b0384166000908152600c6020908152604082208054600181018255908352912001819055600b54341115610add57600b5433906108fc90610ab39034611bcc565b6040518115909202916000818181858888f19350505050158015610adb573d6000803e3d6000fd5b505b80846001600160a01b03167fd35bb95e09c04b219e35047ce7b7b300e3384264ef84a40456943dbc0fc17c1485604051610b179190611785565b60405180910390a39392505050565b6001600160a01b0381166000908152600c6020908152604091829020805483518184028101840190945280845260609392830182828015610b8657602002820191906000526020600020905b815481526020019060010190808311610b72575b50505050509050919050565b6001600160a01b03918216600090815260056020908152604080832093909416825291909152205460ff1690565b60606000825111610c065760405162461bcd60e51b815260206004820152601060248201526f139bc810d2511cc81c1c9bdd9a59195960821b60448201526064016106d2565b8151600b54610c159190611cfe565b341015610c5b5760405162461bcd60e51b8152602060048201526014602482015273125b9cdd59999a58da595b9d081c185e5b595b9d60621b60448201526064016106d2565b6000825167ffffffffffffffff811115610c7757610c7761181a565b604051908082528060200260200182016040528015610ca0578160200160208202803683370190505b50905060005b8351811015610d0157610cd285858381518110610cc557610cc5611d15565b602002602001015161096c565b828281518110610ce457610ce4611d15565b602090810291909101015280610cf981611ce5565b915050610ca6565b509392505050565b610d11610d47565b6001600160a01b038116610d3b57604051631e4fbdf760e01b8152600060048201526024016106d2565b610d4481610ed8565b50565b6007546001600160a01b031633146108ca5760405163118cdaa760e01b81523360048201526024016106d2565b60006001600160e01b03198216632483248360e11b148061053857506105388261126f565b6000818152600260205260408120546001600160a01b03168061053857604051637e27328960e01b8152600481018490526024016106d2565b61081183838360016112bf565b6000828152600260205260408120546001600160a01b0390811690831615610e0c57610e0c8184866113c5565b6001600160a01b03811615610e4a57610e296000856000806112bf565b6001600160a01b038116600090815260036020526040902080546000190190555b6001600160a01b03851615610e79576001600160a01b0385166000908152600360205260409020805460010190555b60008481526002602052604080822080546001600160a01b0319166001600160a01b0389811691821790925591518793918516917fddf252ad1be2c89b69c2b068fc378daa952ba7f163c4a11628f55a4df523b3ef91a4949350505050565b600780546001600160a01b038381166001600160a01b0319831681179093556040519116919082907f8be0079c531659141344cd1fd0a4f28419497f9722a3daafe3b4186f6b6457e090600090a35050565b6001600160a01b038216610f5c57604051630b61174360e31b81526001600160a01b03831660048201526024016106d2565b6001600160a01b03838116600081815260056020908152604080832094871680845294825291829020805460ff191686151590811790915591519182527f17307eab39ab6107e8899845ad3d59bd9653f200f220920489ca2b5937696c31910160405180910390a3505050565b6001600160a01b0383163b156110ed57604051630a85bd0160e11b81526001600160a01b0384169063150b7a029061100b908890889087908790600401611d2b565b6020604051808303816000875af1925050508015611046575060408051601f3d908101601f1916820190925261104391810190611d68565b60015b6110af573d808015611074576040519150601f19603f3d011682016040523d82523d6000602084013e611079565b606091505b5080516000036110a757604051633250574960e11b81526001600160a01b03851660048201526024016106d2565b805160208201fd5b6001600160e01b03198116630a85bd0160e11b146110eb57604051633250574960e11b81526001600160a01b03851660048201526024016106d2565b505b5050505050565b60606110ff82610d99565b506000828152600660205260408120805461111990611b7c565b80601f016020809104026020016040519081016040528092919081815260200182805461114590611b7c565b80156111925780601f1061116757610100808354040283529160200191611192565b820191906000526020600020905b81548152906001019060200180831161117557829003601f168201915b5050505050905060006111b060408051602081019091526000815290565b905080516000036111c2575092915050565b8151156111f45780826040516020016111dc929190611d85565b60405160208183030381529060405292505050919050565b6111fd84611429565b949350505050565b61060482826040518060200160405280600081525061149e565b60008281526006602052604090206112378282611c25565b506040518281527ff8e1a15aba9398e019f0b49df1a4fde98ee17ae345cb5f6b5e2c27f5033e8ce79060200160405180910390a15050565b60006001600160e01b031982166380ac58cd60e01b14806112a057506001600160e01b03198216635b5e139f60e01b145b8061053857506301ffc9a760e01b6001600160e01b0319831614610538565b80806112d357506001600160a01b03821615155b156113955760006112e384610d99565b90506001600160a01b0383161580159061130f5750826001600160a01b0316816001600160a01b031614155b801561132257506113208184610b92565b155b1561134b5760405163a9fbf51f60e01b81526001600160a01b03841660048201526024016106d2565b81156113935783856001600160a01b0316826001600160a01b03167f8c5be1e5ebec7d5bd14f71427d1e84f3dd0314c0f7b2291e5b200ac8c7c3b92560405160405180910390a45b505b5050600090815260046020526040902080546001600160a01b0319166001600160a01b0392909216919091179055565b6113d08383836114b6565b610811576001600160a01b0383166113fe57604051637e27328960e01b8152600481018290526024016106d2565b60405163177e802f60e01b81526001600160a01b0383166004820152602481018290526044016106d2565b606061143482610d99565b50600061144c60408051602081019091526000815290565b9050600081511161146c5760405180602001604052806000815250611497565b8061147684611519565b604051602001611487929190611d85565b6040516020818303038152906040525b9392505050565b6114a883836115ac565b610811336000858585610fc9565b60006001600160a01b038316158015906111fd5750826001600160a01b0316846001600160a01b031614806114f057506114f08484610b92565b806111fd5750506000908152600460205260409020546001600160a01b03908116911614919050565b6060600061152683611611565b600101905060008167ffffffffffffffff8111156115465761154661181a565b6040519080825280601f01601f191660200182016040528015611570576020820181803683370190505b5090508181016020015b600019016f181899199a1a9b1b9c1cb0b131b232b360811b600a86061a8153600a850494508461157a57509392505050565b6001600160a01b0382166115d657604051633250574960e11b8152600060048201526024016106d2565b60006115e483836000610ddf565b90506001600160a01b03811615610811576040516339e3563760e11b8152600060048201526024016106d2565b60008072184f03e93ff9f4daa797ed6e38ed64bf6a1f0160401b83106116505772184f03e93ff9f4daa797ed6e38ed64bf6a1f0160401b830492506040015b6d04ee2d6d415b85acef8100000000831061167c576d04ee2d6d415b85acef8100000000830492506020015b662386f26fc10000831061169a57662386f26fc10000830492506010015b6305f5e10083106116b2576305f5e100830492506008015b61271083106116c657612710830492506004015b606483106116d8576064830492506002015b600a83106105385760010192915050565b6000602082840312156116fb57600080fd5b5035919050565b6001600160e01b031981168114610d4457600080fd5b60006020828403121561172a57600080fd5b813561149781611702565b60005b83811015611750578181015183820152602001611738565b50506000910152565b60008151808452611771816020860160208601611735565b601f01601f19169290920160200192915050565b6020815260006114976020830184611759565b80356001600160a01b03811681146117af57600080fd5b919050565b600080604083850312156117c757600080fd5b6117d083611798565b946020939093013593505050565b6000806000606084860312156117f357600080fd5b6117fc84611798565b925061180a60208501611798565b9150604084013590509250925092565b634e487b7160e01b600052604160045260246000fd5b604051601f8201601f1916810167ffffffffffffffff811182821017156118595761185961181a565b604052919050565b600067ffffffffffffffff83111561187b5761187b61181a565b61188e601f8401601f1916602001611830565b90508281528383830111156118a257600080fd5b828260208301376000602084830101529392505050565b600082601f8301126118ca57600080fd5b61149783833560208501611861565b6000602082840312156118eb57600080fd5b813567ffffffffffffffff81111561190257600080fd5b6111fd848285016118b9565b60006020828403121561192057600080fd5b61149782611798565b6000806040838503121561193c57600080fd5b61194583611798565b91506020830135801515811461195a57600080fd5b809150509250929050565b6000806000806080858703121561197b57600080fd5b61198485611798565b935061199260208601611798565b925060408501359150606085013567ffffffffffffffff8111156119b557600080fd5b8501601f810187136119c657600080fd5b6119d587823560208401611861565b91505092959194509250565b600080604083850312156119f457600080fd5b6119fd83611798565b9150602083013567ffffffffffffffff811115611a1957600080fd5b611a25858286016118b9565b9150509250929050565b6020808252825182820181905260009190848201906040850190845b81811015611a6757835183529284019291840191600101611a4b565b50909695505050505050565b60008060408385031215611a8657600080fd5b611a8f83611798565b9150611a9d60208401611798565b90509250929050565b60008060408385031215611ab957600080fd5b611ac283611798565b915060208084013567ffffffffffffffff80821115611ae057600080fd5b818601915086601f830112611af457600080fd5b813581811115611b0657611b0661181a565b8060051b611b15858201611830565b918252838101850191858101908a841115611b2f57600080fd5b86860192505b83831015611b6b57823585811115611b4d5760008081fd5b611b5b8c89838a01016118b9565b8352509186019190860190611b35565b809750505050505050509250929050565b600181811c90821680611b9057607f821691505b602082108103611bb057634e487b7160e01b600052602260045260246000fd5b50919050565b634e487b7160e01b600052601160045260246000fd5b8181038181111561053857610538611bb6565b601f82111561081157600081815260208120601f850160051c81016020861015611c065750805b601f850160051c820191505b818110156110eb57828155600101611c12565b815167ffffffffffffffff811115611c3f57611c3f61181a565b611c5381611c4d8454611b7c565b84611bdf565b602080601f831160018114611c885760008415611c705750858301515b600019600386901b1c1916600185901b1785556110eb565b600085815260208120601f198616915b82811015611cb757888601518255948401946001909101908401611c98565b5085821015611cd55787850151600019600388901b60f8161c191681555b5050505050600190811b01905550565b600060018201611cf757611cf7611bb6565b5060010190565b808202811582820484141761053857610538611bb6565b634e487b7160e01b600052603260045260246000fd5b6001600160a01b0385811682528416602082015260408101839052608060608201819052600090611d5e90830184611759565b9695505050505050565b600060208284031215611d7a57600080fd5b815161149781611702565b60008351611d97818460208801611735565b835190830190611dab818360208801611735565b0194935050505056fea264697066735822122074cb978b766d02f77a1bfe9bccda23560d07635d8e41a949af9c87f8075f8e8764736f6c63430008140033a26469706673582212204216134840382e7eb72cdc4ac5cb4d762540fe217b7f5c4781c2bb60cbc9158764736f6c63430008140033",
  "linkReferences": {},
  "deployedLinkReferences": {}
}