{
  "_format": "hh-sol-artifact-1",
  "contractName": "SommiaNFTMarketplace",
  "sourceName": "contracts/SommiaNFTMarketplace.sol",
  "abi": [
    {
      "inputs": [
        {
          "internalType": "address",
          "name": "_feeRecipient",
          "type": "address"
        }
      ],
      "stateMutability": "nonpayable",
      "type": "constructor"
    },
    {
      "inputs": [
        {
          "internalType": "address",
          "name": "owner",
          "type": "address"
        }
      ],
      "name": "OwnableInvalidOwner",
      "type": "error"
    },
    {
      "inputs": [
        {
          "internalType": "address",
          "name": "account",
          "type": "address"
        }
      ],
      "name": "OwnableUnauthorizedAccount",
      "type": "error"
    },
    {
      "inputs": [],
      "name": "ReentrancyGuardReentrantCall",
      "type": "error"
    },
    {
      "anonymous": false,
      "inputs": [
        {
          "indexed": true,
          "internalType": "address",
          "name": "nft",
          "type": "address"
        },
        {
          "indexed": true,
          "internalType": "uint256",
          "name": "tokenId",
          "type": "uint256"
        },
        {
          "indexed": true,
          "internalType": "address",
          "name": "seller",
          "type": "address"
        }
      ],
      "name": "Escrowed",
      "type": "event"
    },
    {
      "anonymous": false,
      "inputs": [
        {
          "indexed": true,
          "internalType": "uint256",
          "name": "listingId",
          "type": "uint256"
        },
        {
          "indexed": true,
          "internalType": "address",
          "name": "seller",
          "type": "address"
        },
        {
          "indexed": false,
          "internalType": "uint256",
          "name": "refundWei",
          "type": "uint256"
        }
      ],
      "name": "ListingCanceled",
      "type": "event"
    },
    {
      "anonymous": false,
      "inputs": [
        {
          "indexed": true,
          "internalType": "uint256",
          "name": "listingId",
          "type": "uint256"
        },
        {
          "indexed": true,
          "internalType": "address",
          "name": "seller",
          "type": "address"
        },
        {
          "indexed": true,
          "internalType": "address",
          "name": "nft",
          "type": "address"
        },
        {
          "indexed": false,
          "internalType": "uint256",
          "name": "tokenId",
          "type": "uint256"
        },
        {
          "indexed": false,
          "internalType": "uint256",
          "name": "price",
          "type": "uint256"
        },
        {
          "indexed": false,
          "internalType": "string",
          "name": "cid",
          "type": "string"
        }
      ],
      "name": "ListingCreated",
      "type": "event"
    },
    {
      "anonymous": false,
      "inputs": [
        {
          "indexed": true,
          "internalType": "uint256",
          "name": "listingId",
          "type": "uint256"
        },
        {
          "indexed": false,
          "internalType": "uint256",
          "name": "newPrice",
          "type": "uint256"
        },
        {
          "indexed": false,
          "internalType": "string",
          "name": "newCid",
          "type": "string"
        }
      ],
      "name": "ListingUpdated",
      "type": "event"
    },
    {
      "anonymous": false,
      "inputs": [
        {
          "indexed": true,
          "internalType": "address",
          "name": "previousOwner",
          "type": "address"
        },
        {
          "indexed": true,
          "internalType": "address",
          "name": "newOwner",
          "type": "address"
        }
      ],
      "name": "OwnershipTransferred",
      "type": "event"
    },
    {
      "anonymous": false,
      "inputs": [
        {
          "indexed": true,
          "internalType": "uint256",
          "name": "listingId",
          "type": "uint256"
        },
        {
          "indexed": true,
          "internalType": "address",
          "name": "buyer",
          "type": "address"
        },
        {
          "indexed": false,
          "internalType": "uint256",
          "name": "price",
          "type": "uint256"
        },
        {
          "indexed": false,
          "internalType": "uint256",
          "name": "sellerProceeds",
          "type": "uint256"
        },
        {
          "indexed": false,
          "internalType": "uint256",
          "name": "platformFee",
          "type": "uint256"
        }
      ],
      "name": "Purchased",
      "type": "event"
    },
    {
      "stateMutability": "payable",
      "type": "fallback"
    },
    {
      "inputs": [
        {
          "internalType": "uint256",
          "name": "",
          "type": "uint256"
        }
      ],
      "name": "activeListingIds",
      "outputs": [
        {
          "internalType": "uint256",
          "name": "",
          "type": "uint256"
        }
      ],
      "stateMutability": "view",
      "type": "function"
    },
    {
      "inputs": [
        {
          "internalType": "address",
          "name": "nft",
          "type": "address"
        },
        {
          "internalType": "uint256",
          "name": "tokenId",
          "type": "uint256"
        }
      ],
      "name": "adminReturnEscrow",
      "outputs": [],
      "stateMutability": "nonpayable",
      "type": "function"
    },
    {
      "inputs": [
        {
          "internalType": "uint256",
          "name": "listingId",
          "type": "uint256"
        }
      ],
      "name": "cancelListing",
      "outputs": [],
      "stateMutability": "nonpayable",
      "type": "function"
    },
    {
      "inputs": [],
      "name": "cancelRefundBps",
      "outputs": [
        {
          "internalType": "uint256",
          "name": "",
          "type": "uint256"
        }
      ],
      "stateMutability": "view",
      "type": "function"
    },
    {
      "inputs": [
        {
          "internalType": "address",
          "name": "nft",
          "type": "address"
        },
        {
          "internalType": "uint256",
          "name": "tokenId",
          "type": "uint256"
        },
        {
          "internalType": "uint256",
          "name": "price",
          "type": "uint256"
        },
        {
          "internalType": "string",
          "name": "cid",
          "type": "string"
        }
      ],
      "name": "createListing",
      "outputs": [
        {
          "internalType": "uint256",
          "name": "listingId",
          "type": "uint256"
        }
      ],
      "stateMutability": "payable",
      "type": "function"
    },
    {
      "inputs": [
        {
          "internalType": "address",
          "name": "nft",
          "type": "address"
        },
        {
          "internalType": "uint256",
          "name": "tokenId",
          "type": "uint256"
        },
        {
          "internalType": "address",
          "name": "seller",
          "type": "address"
        },
        {
          "internalType": "bytes",
          "name": "data",
          "type": "bytes"
        }
      ],
      "name": "createListingFromEscrow",
      "outputs": [
        {
          "internalType": "uint256",
          "name": "",
          "type": "uint256"
        }
      ],
      "stateMutability": "payable",
      "type": "function"
    },
    {
      "inputs": [
        {
          "internalType": "address",
          "name": "",
          "type": "address"
        },
        {
          "internalType": "uint256",
          "name": "",
          "type": "uint256"
        }
      ],
      "name": "escrowOriginalOwner",
      "outputs": [
        {
          "internalType": "address",
          "name": "",
          "type": "address"
        }
      ],
      "stateMutability": "view",
      "type": "function"
    },
    {
      "inputs": [],
      "name": "feeRecipient",
      "outputs": [
        {
          "internalType": "address",
          "name": "",
          "type": "address"
        }
      ],
      "stateMutability": "view",
      "type": "function"
    },
    {
      "inputs": [],
      "name": "getActiveListingsCount",
      "outputs": [
        {
          "internalType": "uint256",
          "name": "",
          "type": "uint256"
        }
      ],
      "stateMutability": "view",
      "type": "function"
    },
    {
      "inputs": [
        {
          "internalType": "uint256",
          "name": "offset",
          "type": "uint256"
        },
        {
          "internalType": "uint256",
          "name": "limit",
          "type": "uint256"
        }
      ],
      "name": "getActiveListingsPaginated",
      "outputs": [
        {
          "internalType": "uint256[]",
          "name": "ids",
          "type": "uint256[]"
        },
        {
          "internalType": "bool",
          "name": "hasMore",
          "type": "bool"
        }
      ],
      "stateMutability": "view",
      "type": "function"
    },
    {
      "inputs": [
        {
          "internalType": "address",
          "name": "nft",
          "type": "address"
        },
        {
          "internalType": "uint256",
          "name": "tokenId",
          "type": "uint256"
        }
      ],
      "name": "getEscrowInfo",
      "outputs": [
        {
          "internalType": "address",
          "name": "originalOwner",
          "type": "address"
        },
        {
          "internalType": "bool",
          "name": "isListed",
          "type": "bool"
        },
        {
          "internalType": "uint256",
          "name": "listingId",
          "type": "uint256"
        }
      ],
      "stateMutability": "view",
      "type": "function"
    },
    {
      "inputs": [
        {
          "internalType": "uint256",
          "name": "listingId",
          "type": "uint256"
        }
      ],
      "name": "getListing",
      "outputs": [
        {
          "internalType": "address",
          "name": "seller",
          "type": "address"
        },
        {
          "internalType": "address",
          "name": "nft",
          "type": "address"
        },
        {
          "internalType": "uint256",
          "name": "tokenId",
          "type": "uint256"
        },
        {
          "internalType": "uint256",
          "name": "price",
          "type": "uint256"
        },
        {
          "internalType": "string",
          "name": "cid",
          "type": "string"
        },
        {
          "internalType": "bool",
          "name": "active",
          "type": "bool"
        },
        {
          "internalType": "bool",
          "name": "sold",
          "type": "bool"
        },
        {
          "internalType": "uint256",
          "name": "createdAt",
          "type": "uint256"
        }
      ],
      "stateMutability": "view",
      "type": "function"
    },
    {
      "inputs": [
        {
          "internalType": "address",
          "name": "seller",
          "type": "address"
        }
      ],
      "name": "getSellerListings",
      "outputs": [
        {
          "internalType": "uint256[]",
          "name": "",
          "type": "uint256[]"
        }
      ],
      "stateMutability": "view",
      "type": "function"
    },
    {
      "inputs": [],
      "name": "listingFeeWei",
      "outputs": [
        {
          "internalType": "uint256",
          "name": "",
          "type": "uint256"
        }
      ],
      "stateMutability": "view",
      "type": "function"
    },
    {
      "inputs": [
        {
          "internalType": "uint256",
          "name": "",
          "type": "uint256"
        }
      ],
      "name": "listings",
      "outputs": [
        {
          "internalType": "address",
          "name": "seller",
          "type": "address"
        },
        {
          "internalType": "address",
          "name": "nft",
          "type": "address"
        },
        {
          "internalType": "uint256",
          "name": "tokenId",
          "type": "uint256"
        },
        {
          "internalType": "uint256",
          "name": "price",
          "type": "uint256"
        },
        {
          "internalType": "string",
          "name": "cid",
          "type": "string"
        },
        {
          "internalType": "bool",
          "name": "active",
          "type": "bool"
        },
        {
          "internalType": "bool",
          "name": "sold",
          "type": "bool"
        },
        {
          "internalType": "uint256",
          "name": "listingFeePaid",
          "type": "uint256"
        },
        {
          "internalType": "uint256",
          "name": "createdAt",
          "type": "uint256"
        }
      ],
      "stateMutability": "view",
      "type": "function"
    },
    {
      "inputs": [],
      "name": "nextListingId",
      "outputs": [
        {
          "internalType": "uint256",
          "name": "",
          "type": "uint256"
        }
      ],
      "stateMutability": "view",
      "type": "function"
    },
    {
      "inputs": [
        {
          "internalType": "address",
          "name": "operator",
          "type": "address"
        },
        {
          "internalType": "address",
          "name": "from",
          "type": "address"
        },
        {
          "internalType": "uint256",
          "name": "tokenId",
          "type": "uint256"
        },
        {
          "internalType": "bytes",
          "name": "data",
          "type": "bytes"
        }
      ],
      "name": "onERC721Received",
      "outputs": [
        {
          "internalType": "bytes4",
          "name": "",
          "type": "bytes4"
        }
      ],
      "stateMutability": "nonpayable",
      "type": "function"
    },
    {
      "inputs": [],
      "name": "owner",
      "outputs": [
        {
          "internalType": "address",
          "name": "",
          "type": "address"
        }
      ],
      "stateMutability": "view",
      "type": "function"
    },
    {
      "inputs": [],
      "name": "platformFeeBps",
      "outputs": [
        {
          "internalType": "uint256",
          "name": "",
          "type": "uint256"
        }
      ],
      "stateMutability": "view",
      "type": "function"
    },
    {
      "inputs": [
        {
          "internalType": "uint256",
          "name": "listingId",
          "type": "uint256"
        }
      ],
      "name": "purchase",
      "outputs": [],
      "stateMutability": "payable",
      "type": "function"
    },
    {
      "inputs": [],
      "name": "renounceOwnership",
      "outputs": [],
      "stateMutability": "nonpayable",
      "type": "function"
    },
    {
      "inputs": [
        {
          "internalType": "address",
          "name": "",
          "type": "address"
        },
        {
          "internalType": "uint256",
          "name": "",
          "type": "uint256"
        }
      ],
      "name": "sellerListingIds",
      "outputs": [
        {
          "internalType": "uint256",
          "name": "",
          "type": "uint256"
        }
      ],
      "stateMutability": "view",
      "type": "function"
    },
    {
      "inputs": [
        {
          "internalType": "uint256",
          "name": "bps",
          "type": "uint256"
        }
      ],
      "name": "setCancelRefundBps",
      "outputs": [],
      "stateMutability": "nonpayable",
      "type": "function"
    },
    {
      "inputs": [
        {
          "internalType": "address",
          "name": "r",
          "type": "address"
        }
      ],
      "name": "setFeeRecipient",
      "outputs": [],
      "stateMutability": "nonpayable",
      "type": "function"
    },
    {
      "inputs": [
        {
          "internalType": "uint256",
          "name": "fee",
          "type": "uint256"
        }
      ],
      "name": "setListingFeeWei",
      "outputs": [],
      "stateMutability": "nonpayable",
      "type": "function"
    },
    {
      "inputs": [
        {
          "internalType": "uint256",
          "name": "bps",
          "type": "uint256"
        }
      ],
      "name": "setPlatformFeeBps",
      "outputs": [],
      "stateMutability": "nonpayable",
      "type": "function"
    },
    {
      "inputs": [
        {
          "internalType": "address payable",
          "name": "to",
          "type": "address"
        },
        {
          "internalType": "uint256",
          "name": "amount",
          "type": "uint256"
        }
      ],
      "name": "sweep",
      "outputs": [],
      "stateMutability": "nonpayable",
      "type": "function"
    },
    {
      "inputs": [
        {
          "internalType": "address",
          "name": "newOwner",
          "type": "address"
        }
      ],
      "name": "transferOwnership",
      "outputs": [],
      "stateMutability": "nonpayable",
      "type": "function"
    },
    {
      "inputs": [
        {
          "internalType": "uint256",
          "name": "listingId",
          "type": "uint256"
        },
        {
          "internalType": "uint256",
          "name": "newPrice",
          "type": "uint256"
        },
        {
          "internalType": "string",
          "name": "newCid",
          "type": "string"
        }
      ],
      "name": "updateListing",
      "outputs": [],
      "stateMutability": "nonpayable",
      "type": "function"
    },
    {
      "inputs": [
        {
          "internalType": "address",
          "name": "nft",
          "type": "address"
        },
        {
          "internalType": "uint256",
          "name": "tokenId",
          "type": "uint256"
        }
      ],
      "name": "withdrawEscrow",
      "outputs": [],
      "stateMutability": "nonpayable",
      "type": "function"
    },
    {
      "stateMutability": "payable",
      "type": "receive"
    }
  ],
  "bytecode": "0x6080604052600060025560fa60035560006004553480156200002057600080fd5b50604051620027323803806200273283398101604081905262000043916200010a565b33806200006a57604051631e4fbdf760e01b81526000600482015260240160405180910390fd5b6200007581620000ba565b50600180556001600160a01b0381161562000091578062000093565b335b600580546001600160a01b0319166001600160a01b0392909216919091179055506200013c565b600080546001600160a01b038381166001600160a01b0319831681178455604051919092169283917f8be0079c531659141344cd1fd0a4f28419497f9722a3daafe3b4186f6b6457e09190a35050565b6000602082840312156200011d57600080fd5b81516001600160a01b03811681146200013557600080fd5b9392505050565b6125e6806200014c6000396000f3fe6080604052600436106101b95760003560e01c806388f4450d116100eb578063c580c9421161008f578063e74b981b11610061578063e74b981b1461057a578063efef39a11461059a578063f2fde38b146105ad578063f7e363f0146105cd57005b8063c580c942146104d7578063d4910254146104f7578063de74e57b14610525578063e3b6a1f61461055a57005b806395af4964116100c857806395af49641461046b578063aaccf1ec14610481578063b2bc6a7314610497578063b61e0183146104b757005b806388f4450d1461042757806388fd7a4a1461043a5780638da5cb5b1461044d57005b806337895af31161015d5780636ea056a91161012f5780636ea056a91461039857806370ec41b5146103b8578063715018a6146103fd5780637b55927c1461041257005b806337895af3146102d25780633946b9781461032b578063469048401461034b5780635f42da091461036b57005b8063150b7a0211610196578063150b7a021461023f57806322dcd13e146102785780632906a0a11461029c578063305a67a8146102b257005b806301eb7cd5146101c2578063107a274a146101e257806311eb10cc1461021f57005b366101c057005b005b3480156101ce57600080fd5b506101c06101dd366004611d5d565b6105ed565b3480156101ee57600080fd5b506102026101fd366004611d5d565b61063c565b604051610216989796959493929190611dbc565b60405180910390f35b34801561022b57600080fd5b506101c061023a366004611d5d565b610747565b34801561024b57600080fd5b5061025f61025a366004611e6f565b610754565b6040516001600160e01b03199091168152602001610216565b34801561028457600080fd5b5061028e60035481565b604051908152602001610216565b3480156102a857600080fd5b5061028e60025481565b3480156102be57600080fd5b506101c06102cd366004611d5d565b61083f565b3480156102de57600080fd5b506103136102ed366004611ee2565b60086020908152600092835260408084209091529082529020546001600160a01b031681565b6040516001600160a01b039091168152602001610216565b34801561033757600080fd5b506101c0610346366004611ee2565b610a52565b34801561035757600080fd5b50600554610313906001600160a01b031681565b34801561037757600080fd5b5061038b610386366004611f0e565b610baa565b6040516102169190611f6d565b3480156103a457600080fd5b506101c06103b3366004611ee2565b610c16565b3480156103c457600080fd5b506103d86103d3366004611ee2565b610c51565b604080516001600160a01b039094168452911515602084015290820152606001610216565b34801561040957600080fd5b506101c0610ca9565b34801561041e57600080fd5b50600a5461028e565b61028e610435366004611f80565b610cbd565b61028e610448366004611fcd565b610d82565b34801561045957600080fd5b506000546001600160a01b0316610313565b34801561047757600080fd5b5061028e60045481565b34801561048d57600080fd5b5061028e60075481565b3480156104a357600080fd5b506101c06104b2366004611ee2565b610df1565b3480156104c357600080fd5b5061028e6104d2366004611ee2565b610ee8565b3480156104e357600080fd5b506101c06104f2366004611d5d565b610f19565b34801561050357600080fd5b50610517610512366004612023565b610f62565b604051610216929190612045565b34801561053157600080fd5b50610545610540366004611d5d565b611065565b60405161021699989796959493929190612069565b34801561056657600080fd5b5061028e610575366004611d5d565b61114a565b34801561058657600080fd5b506101c0610595366004611f0e565b61116b565b6101c06105a8366004611d5d565b6111db565b3480156105b957600080fd5b506101c06105c8366004611f0e565b611530565b3480156105d957600080fd5b506101c06105e83660046120ce565b61156b565b6105f5611677565b6127108111156106375760405162461bcd60e51b81526020600482015260086024820152676d6178203130302560c01b60448201526064015b60405180910390fd5b600455565b60008181526006602052604081208054600182015460028301546003840154600585015460078601546004870180548998899889986060988a988998899895976001600160a01b03958616979590941695929491939260ff80831693610100909304169184906106ab90612121565b80601f01602080910402602001604051908101604052809291908181526020018280546106d790612121565b80156107245780601f106106f957610100808354040283529160200191610724565b820191906000526020600020905b81548152906001019060200180831161070757829003601f168201915b505050505093509850985098509850985098509850985050919395975091939597565b61074f611677565b600255565b33600081815260086020908152604080832087845290915280822080546001600160a01b0319166001600160a01b0389169081179091559051919290918691907f85c9c825ce5d42e9c456f64b65a0aeaa24521251d91ca964e8caa8f2370f8fea908590a4811561082c5760405163447ebd2560e11b815230906388fd7a4a906107ea90339088908a9089908990600401612184565b6020604051808303816000875af1925050508015610825575060408051601f3d908101601f19168201909252610822918101906121c3565b60015b1561082c57505b50630a85bd0160e11b5b95945050505050565b6108476116a4565b6000818152600660205260409020600581015460ff16801561087357506005810154610100900460ff16155b6108ac5760405162461bcd60e51b815260206004820152600a6024820152694e6f742061637469766560b01b604482015260640161062e565b80546001600160a01b031633146108f25760405162461bcd60e51b815260206004820152600a6024820152692737ba1039b2b63632b960b11b604482015260640161062e565b60058101805460ff191690556001810154600282015461091b916001600160a01b0316906116ce565b610924826116f2565b6001810180546001600160a01b039081166000908152600860209081526040808320600287018054855292529182902080546001600160a01b03191690559254845493549151632142170760e11b8152908316936342842e0e9361099193309392909116916004016121dc565b600060405180830381600087803b1580156109ab57600080fd5b505af11580156109bf573d6000803e3d6000fd5b50505050600061271060045483600601546109da9190612216565b6109e4919061222d565b90508015610a01578154610a01906001600160a01b0316826117ae565b81546040518281526001600160a01b039091169084907fa0778f38b1fdc5bce907afce6a3cd0b872440435089e0cfa72126f3759f82d819060200160405180910390a35050610a4f60018055565b50565b610a5a6116a4565b6001600160a01b038281166000908152600860209081526040808320858452909152902054163314610ac35760405162461bcd60e51b81526020600482015260126024820152712737ba1037b934b3b4b730b61037bbb732b960711b604482015260640161062e565b6000610acf8383611853565b90506000198114610b145760405162461bcd60e51b815260206004820152600f60248201526e151bdad95b881a5cc81b1a5cdd1959608a1b604482015260640161062e565b6001600160a01b03831660008181526008602090815260408083208684529091529081902080546001600160a01b031916905551632142170760e11b81526342842e0e90610b6a903090339087906004016121dc565b600060405180830381600087803b158015610b8457600080fd5b505af1158015610b98573d6000803e3d6000fd5b5050505050610ba660018055565b5050565b6001600160a01b038116600090815260096020908152604091829020805483518184028101840190945280845260609392830182828015610c0a57602002820191906000526020600020905b815481526020019060010190808311610bf6575b50505050509050919050565b610c1e611677565b6001600160a01b038216610c3b576000546001600160a01b031691505b610ba6828215610c4b57826117ae565b476117ae565b6001600160a01b038083166000908152600860209081526040808320858452909152812054909116908080610c868686611853565b9050600019811415925082610c9d57600019610c9f565b805b9150509250925092565b610cb1611677565b610cbb600061189b565b565b6000610cc76116a4565b6001600160a01b038681166000908152600860209081526040808320898452909152902054163314610d325760405162461bcd60e51b81526020600482015260146024820152732737ba1032b9b1b937bb903232b837b9b4ba37b960611b604482015260640161062e565b610d773387878787878080601f0160208091040260200160405190810160405280939291908181526020018383808284376000920191909152503492506118eb915050565b905061083660018055565b6000333014610dc35760405162461bcd60e51b815260206004820152600d60248201526c496e7465726e616c206f6e6c7960981b604482015260640161062e565b600080610dd284860186612265565b91509150610de5868989858560006118eb565b98975050505050505050565b610df9611677565b6001600160a01b0380831660009081526008602090815260408083208584529091529020541680610e5b5760405162461bcd60e51b815260206004820152600c60248201526b139bdd08195cd8dc9bddd95960a21b604482015260640161062e565b6001600160a01b03831660008181526008602090815260408083208684529091529081902080546001600160a01b031916905551632142170760e11b81526342842e0e90610eb1903090859087906004016121dc565b600060405180830381600087803b158015610ecb57600080fd5b505af1158015610edf573d6000803e3d6000fd5b50505050505050565b60096020528160005260406000208181548110610f0457600080fd5b90600052602060002001600091509150505481565b610f21611677565b6103e8811115610f5d5760405162461bcd60e51b81526020600482015260076024820152666d61782031302560c81b604482015260640161062e565b600355565b600a54606090600090808510610f8b57505060408051600080825260208201909252915061105e565b6000610f978587612320565b905081811115610fa45750805b6000610fb08783612333565b90508067ffffffffffffffff811115610fcb57610fcb61224f565b604051908082528060200260200182016040528015610ff4578160200160208202803683370190505b50945060005b8181101561105857600a61100e828a612320565b8154811061101e5761101e612346565b906000526020600020015486828151811061103b5761103b612346565b6020908102919091010152806110508161235c565b915050610ffa565b50501090505b9250929050565b600660205260009081526040902080546001820154600283015460038401546004850180546001600160a01b03958616969490951694929391926110a890612121565b80601f01602080910402602001604051908101604052809291908181526020018280546110d490612121565b80156111215780601f106110f657610100808354040283529160200191611121565b820191906000526020600020905b81548152906001019060200180831161110457829003601f168201915b50505060058401546006850154600790950154939460ff80831695610100909304169350915089565b600a818154811061115a57600080fd5b600091825260209091200154905081565b611173611677565b6001600160a01b0381166111b95760405162461bcd60e51b815260206004820152600d60248201526c189859081c9958da5c1a595b9d609a1b604482015260640161062e565b600580546001600160a01b0319166001600160a01b0392909216919091179055565b6111e36116a4565b6000818152600660205260409020600581015460ff16801561120f57506005810154610100900460ff16155b61124a5760405162461bcd60e51b815260206004820152600c60248201526b4e6f7420666f722073616c6560a01b604482015260640161062e565b600181015460028201546040516331a9108f60e11b8152600481019190915230916001600160a01b031690636352211e90602401602060405180830381865afa15801561129b573d6000803e3d6000fd5b505050506040513d601f19601f820116820180604052508101906112bf9190612375565b6001600160a01b03161461130b5760405162461bcd60e51b8152602060048201526013602482015272546f6b656e206e6f7420696e20657363726f7760681b604482015260640161062e565b80600301543410156113565760405162461bcd60e51b8152602060048201526014602482015273125b9cdd59999a58da595b9d081c185e5b595b9d60621b604482015260640161062e565b60008160030154346113689190612333565b9050600061271060035484600301546113819190612216565b61138b919061222d565b9050600081846003015461139f9190612333565b60058501805461ffff1916610100179055600185015460028601549192506113d2916001600160a01b03909116906116ce565b6113db856116f2565b6001840180546001600160a01b03908116600090815260086020908152604080832060028a018054855292529182902080546001600160a01b0319169055925492549051632142170760e11b815292909116916342842e0e9161144491309133916004016121dc565b600060405180830381600087803b15801561145e57600080fd5b505af1158015611472573d6000803e3d6000fd5b505050506000811115611494578354611494906001600160a01b0316826117ae565b81156114ab576114ab6114a5611cb3565b836117ae565b6006840154156114ca576114ca6114c0611cb3565b85600601546117ae565b82156114da576114da33846117ae565b600384015460408051918252602082018390528101839052339086907f6fdf4fde4cc12592feea1edbf6fcc530b69dd9a0ccf9f1138212c11fc11b42629060600160405180910390a350505050610a4f60018055565b611538611677565b6001600160a01b03811661156257604051631e4fbdf760e01b81526000600482015260240161062e565b610a4f8161189b565b6000848152600660205260409020600581015460ff16801561159757506005810154610100900460ff16155b6115d05760405162461bcd60e51b815260206004820152600a6024820152694e6f742061637469766560b01b604482015260640161062e565b80546001600160a01b031633146116165760405162461bcd60e51b815260206004820152600a6024820152692737ba1039b2b63632b960b11b604482015260640161062e565b60038101849055811561163457600481016116328385836123e0565b505b847f49dcb1a8faf44c3ca59497628617e3654e4b35af980bd6df040a49d74be12630858585604051611668939291906124a1565b60405180910390a25050505050565b6000546001600160a01b03163314610cbb5760405163118cdaa760e01b815233600482015260240161062e565b6002600154036116c757604051633ee5aeb560e01b815260040160405180910390fd5b6002600155565b600b60006116dc8484611ce7565b8152602001908152602001600020600090555050565b600a5460005b818110156117a95782600a828154811061171457611714612346565b90600052602060002001540361179757600a611731600184612333565b8154811061174157611741612346565b9060005260206000200154600a828154811061175f5761175f612346565b600091825260209091200155600a80548061177c5761177c6124bb565b60019003818190600052602060002001600090559055505050565b806117a18161235c565b9150506116f8565b505050565b806000036117ba575050565b6000826001600160a01b03168260405160006040518083038185875af1925050503d8060008114611807576040519150601f19603f3d011682016040523d82523d6000602084013e61180c565b606091505b50509050806117a95760405162461bcd60e51b8152602060048201526013602482015272115512081d1c985b9cd9995c8819985a5b1959606a1b604482015260640161062e565b600080600b60006118648686611ce7565b81526020019081526020016000205490508060001461188d57611888600182612333565b611891565b6000195b9150505b92915050565b600080546001600160a01b038381166001600160a01b0319831681178455604051919092169283917f8be0079c531659141344cd1fd0a4f28419497f9722a3daafe3b4186f6b6457e09190a35050565b6040516331a9108f60e11b81526004810185905260009030906001600160a01b03881690636352211e90602401602060405180830381865afa158015611935573d6000803e3d6000fd5b505050506040513d601f19601f820116820180604052508101906119599190612375565b6001600160a01b0316146119a55760405162461bcd60e51b8152602060048201526013602482015272546f6b656e206e6f7420696e20657363726f7760681b604482015260640161062e565b60008351116119e55760405162461bcd60e51b815260206004820152600c60248201526b10d251081c995c5d5a5c995960a21b604482015260640161062e565b60008411611a255760405162461bcd60e51b815260206004820152600d60248201526c496e76616c696420707269636560981b604482015260640161062e565b60025415611a9a57600254821015611a765760405162461bcd60e51b8152602060048201526014602482015273131a5cdd1a5b99c8199959481c995c5d5a5c995960621b604482015260640161062e565b600060025483611a869190612333565b90508015611a9857611a9888826117ae565b505b600019611aa78787611853565b14611ae55760405162461bcd60e51b815260206004820152600e60248201526d105b1c9958591e481b1a5cdd195960921b604482015260640161062e565b60078054906000611af58361235c565b9091555060408051610120810182526001600160a01b03808b16825289811660208084019182528385018b8152606085018b8152608086018b8152600160a08801819052600060c089018190526002805460e08b0152426101008b01528b8252600690965298909820875181549088166001600160a01b0319918216178255955198810180549990971698909516979097179094555190820155905160038201559151929350916004820190611bab90826124d1565b5060a082015160058201805460c085015161ffff1990911692151561ff00191692909217610100921515830217905560e08301516006830155909101516007909101556001600160a01b03871660009081526009602090815260408220805460018181018355918452918320909101839055600a805491820181559091527fc65a7bb8d6351c1cf70c95a316cc6a92839c986682d98bc35f958f4883f9d2a801819055611c59868683611d2e565b856001600160a01b0316876001600160a01b0316827f97a524eb743ff2da83931cbdb25ece4bd5eaa1fa4854def408747b03d1d15c10888888604051611ca193929190612591565b60405180910390a49695505050505050565b6005546000906001600160a01b031615611cd757506005546001600160a01b031690565b506000546001600160a01b031690565b6040516bffffffffffffffffffffffff19606084901b1660208201526034810182905260009060540160405160208183030381529060405280519060200120905092915050565b611d39816001612320565b600b6000611d478686611ce7565b8152602081019190915260400160002055505050565b600060208284031215611d6f57600080fd5b5035919050565b6000815180845260005b81811015611d9c57602081850181015186830182015201611d80565b506000602082860101526020601f19601f83011685010191505092915050565b6001600160a01b03898116825288166020820152604081018790526060810186905261010060808201819052600090611df783820188611d76565b95151560a0840152505091151560c083015260e09091015295945050505050565b6001600160a01b0381168114610a4f57600080fd5b60008083601f840112611e3f57600080fd5b50813567ffffffffffffffff811115611e5757600080fd5b60208301915083602082850101111561105e57600080fd5b600080600080600060808688031215611e8757600080fd5b8535611e9281611e18565b94506020860135611ea281611e18565b935060408601359250606086013567ffffffffffffffff811115611ec557600080fd5b611ed188828901611e2d565b969995985093965092949392505050565b60008060408385031215611ef557600080fd5b8235611f0081611e18565b946020939093013593505050565b600060208284031215611f2057600080fd5b8135611f2b81611e18565b9392505050565b600081518084526020808501945080840160005b83811015611f6257815187529582019590820190600101611f46565b509495945050505050565b602081526000611f2b6020830184611f32565b600080600080600060808688031215611f9857600080fd5b8535611fa381611e18565b94506020860135935060408601359250606086013567ffffffffffffffff811115611ec557600080fd5b600080600080600060808688031215611fe557600080fd5b8535611ff081611e18565b945060208601359350604086013561200781611e18565b9250606086013567ffffffffffffffff811115611ec557600080fd5b6000806040838503121561203657600080fd5b50508035926020909101359150565b6040815260006120586040830185611f32565b905082151560208301529392505050565b6001600160a01b038a81168252891660208201526040810188905260608101879052610120608082018190526000906120a483820189611d76565b96151560a0840152505092151560c084015260e08301919091526101009091015295945050505050565b600080600080606085870312156120e457600080fd5b8435935060208501359250604085013567ffffffffffffffff81111561210957600080fd5b61211587828801611e2d565b95989497509550505050565b600181811c9082168061213557607f821691505b60208210810361215557634e487b7160e01b600052602260045260246000fd5b50919050565b81835281816020850137506000828201602090810191909152601f909101601f19169091010190565b6001600160a01b03868116825260208201869052841660408201526080606082018190526000906121b8908301848661215b565b979650505050505050565b6000602082840312156121d557600080fd5b5051919050565b6001600160a01b039384168152919092166020820152604081019190915260600190565b634e487b7160e01b600052601160045260246000fd5b808202811582820484141761189557611895612200565b60008261224a57634e487b7160e01b600052601260045260246000fd5b500490565b634e487b7160e01b600052604160045260246000fd5b6000806040838503121561227857600080fd5b82359150602083013567ffffffffffffffff8082111561229757600080fd5b818501915085601f8301126122ab57600080fd5b8135818111156122bd576122bd61224f565b604051601f8201601f19908116603f011681019083821181831017156122e5576122e561224f565b816040528281528860208487010111156122fe57600080fd5b8260208601602083013760006020848301015280955050505050509250929050565b8082018082111561189557611895612200565b8181038181111561189557611895612200565b634e487b7160e01b600052603260045260246000fd5b60006001820161236e5761236e612200565b5060010190565b60006020828403121561238757600080fd5b8151611f2b81611e18565b601f8211156117a957600081815260208120601f850160051c810160208610156123b95750805b601f850160051c820191505b818110156123d8578281556001016123c5565b505050505050565b67ffffffffffffffff8311156123f8576123f861224f565b61240c836124068354612121565b83612392565b6000601f84116001811461244057600085156124285750838201355b600019600387901b1c1916600186901b17835561249a565b600083815260209020601f19861690835b828110156124715786850135825560209485019460019092019101612451565b508682101561248e5760001960f88860031b161c19848701351681555b505060018560011b0183555b5050505050565b83815260406020820152600061083660408301848661215b565b634e487b7160e01b600052603160045260246000fd5b815167ffffffffffffffff8111156124eb576124eb61224f565b6124ff816124f98454612121565b84612392565b602080601f831160018114612534576000841561251c5750858301515b600019600386901b1c1916600185901b1785556123d8565b600085815260208120601f198616915b8281101561256357888601518255948401946001909101908401612544565b50858210156125815787850151600019600388901b60f8161c191681555b5050505050600190811b01905550565b8381528260208201526060604082015260006108366060830184611d7656fea26469706673582212202247fe533077fa9a8283476ce356a8bd0000ec470bf467c18138061e8328046c64736f6c63430008140033",
  "linkReferences": {},
  "deployedLinkReferences": {}
}